:100000000C9434000C9406010C9413010C945100D0
:100010000C9451000C9451000C9451000C9451001C
:100020000C9451000C9451000C9451000C9451000C
:100030000C9451000C9451000C9451000C945100FC
:100040000C9451000C9451000C9451000C945100EC
:100050000C9451000C9451000C9451000C945100DC
:100060000C9451000C94510011241FBECFEFD8E026
:10007000DEBFCDBF11E0A0E0B1E0E0E6F5E002C0F8
:1000800005900D92AC32B107D9F721E0ACE2B1E0B6
:1000900001C01D92A933B207E1F70E9465020C94DA
:1000A000AE020C940000282F22952F709FEF920F24
:1000B0009330A0F430E0F901EE0FFF1FE20FF31FC1
:1000C00041A1877021E030E0B90102C0660F771FBF
:1000D0008A95E2F7CB018095842381A30895282F88
:1000E00022952F709FEF920F933088F430E0F90142
:1000F000EE0FFF1FE20FF31F91A1877021E030E0A8
:1001000001C0220F8A95EAF7892F822B81A30895D7
:10011000282F82958F709FEF980F933088F490E08E
:10012000FC01EE0FFF1FE80FF91F92A1892F90E04D
:10013000277002C0959587952A95E2F781700895FA
:1001400080E00895282F22952F709FEF920F933013
:10015000A8F430E0F901EE0FFF1FE20FF31F8770E4
:1001600021E030E0A90102C0440F551F8A95E2F753
:10017000CA0192A1611519F0892B82A30895809577
:100180008923FBCFCF93DF93D82FC62F811519F08A
:1001900081E10E946F00C11519F082E10E946F0099
:1001A000C295CC0FC07ED795DD27D795CD2BC260E9
:1001B000C093800081E18093810080E197E2909379
:1001C000870080938600DF91CF910895803119F0E8
:1001D000813131F00895709389006093880008950B
:1001E00070938B0060938A0008959C01F999FECF6B
:1001F00032BD21BDF89A80B508959C01F999FECFD2
:1002000032BD21BD60BDFA9AF99A08958F938FB7D8
:100210008F9389B1809582958F7080932E018F91F5
:100220008FBF8F9118958F938FB78F9389B18095DA
:1002300082958F7080932F018F918FBF8F9118952A
:1002400082E30E94530083E30E94530084E30E94F0
:10025000530085E30E94530086E30E94530087E326
:100260000E9453008AE08093690083E08DBB08956B
:1002700020912E01809131018095822380932C0161
:1002800030912F01909132019095932390932D01FD
:10029000922F9670911521F090913001993018F0BD
:1002A0001092300105C09F5F90933001993029F082
:1002B00020933101309332010895897F922F9670F7
:1002C000892B80932C01F4CF61E081E00E94C20071
:1002D00080E090E00E94F5008093380181E090E09A
:1002E0000E94F50091E0811101C090E090933701E8
:1002F00082E090E00E94F50090913801943008F07F
:1003000090E0909338018B3008F08AE080933601BA
:10031000089580912F0182FF48C080912C01909117
:100320003701911509F467C083FF16C06091380149
:10033000633008F05EC06F5F6093380180E090E04A
:100340000E94FD0080913801833031F41092350114
:10035000109234011092330180912C0180FF07C06C
:100360001092370160E081E090E00E94FD008091F2
:100370002C0182FF0BC0609136016A3038F46F5F48
:100380006093360182E090E00E94FD0080912C0194
:1003900081FF0BC060913601611539F061506093A7
:1003A000360182E090E00E94FD00809137018115C6
:1003B00009F488C0809138018230B9F130F5E091BC
:1003C0003601811125C0F0E0EE0FFF1FEA5EFE4FFF
:1003D0006081718180E10E94E600E0913601F0E0E9
:1003E000EE0FFF1FEA5EFE4F6081718181E10C9488
:1003F000E60060E0A1CF811509F464C081E080933C
:10040000370161E081E090E0CECF833089F008953C
:10041000F0E0EE0FFF1FEA5EFE4F6081718180E128
:100420000E94E60060E070E0E1CF60E070E0D2CFD3
:10043000809134019091350120913301211133C015
:100440000596382F292F813041E0940710F030E0D5
:1004500021E030933401209335018115914018F04B
:1004600081E080933301E0913601F0E0EE0FFF1F51
:10047000EA5EFE4F6081718180E10E94E600E091BA
:100480003601F0E0EE0FFF1FEA5EFE4F2081318162
:10049000A0913401B09135010E949F02672F782FFF
:1004A000892F9927A3CF8530910510F485E090E03E
:1004B00005979093350180933401892BA1F6109212
:1004C0003301D1CF60E070E0AACFCDB7DEB7669739
:1004D0000FB6F894DEBF0FBECDBF86E1E0E0F1E0DD
:1004E000DE01119601900D928A95E1F78E010F5F62
:1004F0001F4F6E0187E1C80ED11CF801F0808F2DCF
:100500000E946F00F80161818F2D0E94A2000E5F92
:100510001F4F0C151D0589F787EA809364000E9420
:1005200020010E94640178940E9438010E94890190
:1005300087E893E10197F1F700C00000F5CFA29F93
:10054000B001B39FC001A39F700D811D1124911DA7
:10055000B29F700D811D1124911D0895F894FFCF55
:10056000300131011000140015002000210022008C
:1005700023002400250000000300060010002800CE
:0C0580006400FB00770231068D0F10278D
:00000001FF
